:100C000030F4FF1FB50F0000710F0000710F0000DE
:100C1000710F0000710F0000710F00000000000054
:100C2000000000000000000000000000710F000044
:100C3000710F000000000000710F0000710F000034
:100C4000710F0000710F0000710F0000710F0000A4
:100C5000710F000000000000710F0000710F000014
:100C6000710F0000710F0000710F0000710F000084
:100C7000710F0000710F0000710F0000710F000074
:100C8000710F0000710F0000710F0000710F000064
:100C9000710F0000710F0000710F0000710F000054
:100CA000710F0000710F0000710F0000710F000044
:100CB000710F0000710F0000710F0000710F000034
:100CC000710F0000710F0000710F0000710F000024
:100CD000710F0000710F0000710F0000890E0000FD
:100CE000710F0000710F0000710F0000710F000004
:100CF000710F0000710F0000344B9A6942F480625A
:100D00009A61334B1B6C0028BCBF23F0FF036FF3C9
:100D10000A2301070BD500F00C02082A02D00C2A86
:100D200005D102E06FF3820301E043F004034206C1
:100D300011D500F07002502A0BD0602A04D0402A4E
:100D400009D16FF3410306E043F002036FF30003A0
:100D500001E043F00303C1050DD500F4C072B2F504
:100D6000807F03D0B2F5C07F05D102E06FF3861318
:100D700001E043F0400342050DD500F4C062B2F536
:100D8000806F03D0B2F5C06F05D102E06FF304139A
:100D900001E043F01003C1040DD500F4C052B2F5D8
:100DA000805F03D0B2F5C05F05D102E06FF3451359
:100DB00001E043F02003C20348BFC0F34330044ABC
:100DC00048BF60F30A231364704700BF20800440CB
:100DD00000A00440034A1368013B136003B962B6E4
:100DE000704700BF24F0FF1F074A084B1268013A02
:100DF0001A60120C01325A80054A9A60054A11683D
:100E000013605960704700BF00F0FF1F14F0FF1F10
:100E1000610E000028F0FF1F08B50E4B1B6823B9B8
:100E20000D4B1A6822F0410212E00C4A1888118812
:100E3000884205D959885388994201D9FFF7D4FFD0
:100E4000044B1B681A88044B1A811A6842F0C102CD
:100E50001A6008BD28F0FF1F0000044000F0FF1FCB
:100E600070470000064B00229A819A89054B198829
:100E700092B2914202D95988013159801A80704743
:100E80000000044000F0FF1F70B572B6104B114C0B
:100E90001A6801321A60FFF7E5FF236833B10E4E7E
:100EA0000025236832681968914205D9FFF7B4FF1D
:100EB000BDE87040FFF78EBF5A68D86822609A6814
:100EC0009D609047FFF7CEFF2368002BE9D1EDE747
:100ED00024F0FF1F28F0FF1F00F0FF1F38B51E4C45
:100EE00063694FF4903043F480336361FFF704FF8C
:100EF0004FF4C070FFF700FF4FF48033E36072B629
:100F0000164B174C1A6801321A60FFF7ABFFA16845
:100F100019B1BDE83840FFF75DBF124B20461D6890
:100F2000102200F085F8104B1049A36005F2F5156A
:100F300025600B6804E01A68AA4203D8191D5B6893
:100F4000002BF8D1064A5360084B0A601B68934295
:100F5000DFD1FFF761FFDCE740F00F4024F0FF1F17
:100F600004F0FF1F00F0FF1FDD0E000028F0FF1F40
:100F7000FEE7000008B50B4A936943F00103936153
:100F8000094B05225A6084221A60084B80220020F7
:100F90005A60FFF7A3FF064A136943F00203136187
:100FA00030BFFDE7208004400000044000E100E085
:100FB00000ED00E0164A1749174808B54CF22053D7
:100FC000D3814DF62813D381138823F001031B042A
:100FD0001B0C1380114BA022DA70114B5A686FF36F
:100FE00010425A600F4A0023891A02E01C5C9C548C
:100FF00001338B42FAD10C4A0C490023891A184656
:1010000001E0D05401338B42FBD1FFF7B3FF00BFA7
:10101000002005402CF0FF1FD410000000400640C7
:10102000008004402CF0FF1F00F0FF1F2CF0FF1F7A
:10103000F0B484074BD0541E002A46D0CDB2431CD6
:1010400004E00133621E002C3FD014469A0703F8D7
:10105000015C1E46F5D1032C2DD9CDB20F2C45EAEB
:10106000052545EA054584BF3246234612D9103B83
:101070000F2B156055609560D56002F11002F6D80F
:10108000A4F1100323F00F0304F00F041033032C1A
:101090001E4410D9271FBF0806F1080202EB870281
:1010A000331D43F8045C04339342FAD1013706EB55
:1010B000870604F0030444B101343419C9B2731C27
:1010C00003F8011C0133A342FAD1F0BC7047144667
:0410D0000646C0E729
:0400000300000C00ED
:00000001FF
